{
  "contractName": "Auction",
  "abi": [
    {
      "inputs": [],
      "stateMutability": "nonpayable",
      "type": "constructor"
    },
    {
      "inputs": [],
      "name": "counter",
      "outputs": [
        {
          "internalType": "uint256",
          "name": "",
          "type": "uint256"
        }
      ],
      "stateMutability": "view",
      "type": "function"
    },
    {
      "inputs": [],
      "name": "getOwner",
      "outputs": [
        {
          "internalType": "address",
          "name": "",
          "type": "address"
        }
      ],
      "stateMutability": "view",
      "type": "function"
    },
    {
      "inputs": [],
      "name": "addCounter",
      "outputs": [],
      "stateMutability": "nonpayable",
      "type": "function"
    }
  ],
  "bytecode": "0x608060405234801561000f575f80fd5b50335f806101000a81548173ffffffffffffffffffffffffffffffffffffffff021916908373ffffffffffffffffffffffffffffffffffffffff1602179055506102588061005c5f395ff3fe608060405234801561000f575f80fd5b506004361061003f575f3560e01c806308615e551461004357806361bc221a1461004d578063893d20e81461006b575b5f80fd5b61004b610089565b005b6100556100f8565b604051610062919061013d565b60405180910390f35b6100736100fe565b6040516100809190610195565b60405180910390f35b3373ffffffffffffffffffffffffffffffffffffffff165f8054906101000a900473ffffffffffffffffffffffffffffffffffffffff1673ffffffffffffffffffffffffffffffffffffffff16146100df575f80fd5b60015f8154809291906100f1906101db565b9190505550565b60015481565b5f805f9054906101000a900473ffffffffffffffffffffffffffffffffffffffff16905090565b5f819050919050565b61013781610125565b82525050565b5f6020820190506101505f83018461012e565b92915050565b5f73ffffffffffffffffffffffffffffffffffffffff82169050919050565b5f61017f82610156565b9050919050565b61018f81610175565b82525050565b5f6020820190506101a85f830184610186565b92915050565b7f4e487b71000000000000000000000000000000000000000000000000000000005f52601160045260245ffd5b5f6101e582610125565b91507fffffffffffffffffffffffffffffffffffffffffffffffffffffffffffffffff8203610217576102166101ae565b5b60018201905091905056fea2646970667358221220047dc3c220c11a3636e8a80f71913f1f88bbe7426c0cc600d412561cd3a2e85164736f6c63430008140033",
  "immutableReferences": {},
  "source": "// SPDX-License-Identifier: GPL-3.0\n\npragma solidity >=0.8.2 <0.9.0;\n\n\ncontract Auction {\n\n    address owner;\n    uint256 public counter;\n\n    constructor(){\n        owner=msg.sender;\n    }\n\n    modifier isOwner(){\n        require(owner==msg.sender);\n        _;\n    }\n\n    function getOwner() public view returns(address){\n        return owner;\n    }\n\n    function addCounter() public isOwner{\n        counter++;\n    }\n}\n",
  "sourcePath": "/home/kd/truffle/auction/contracts/auction.sol",
  "compiler": {
    "name": "solc",
    "version": "0.8.20+commit.a1b79de6.Emscripten.clang"
  },
  "schemaVersion": "3.4.14",
  "updatedAt": "2023-06-06T12:19:50.695Z",
  "devdoc": {
    "kind": "dev",
    "methods": {},
    "version": 1
  },
  "userdoc": {
    "kind": "user",
    "methods": {},
    "version": 1
  }
}